{
  "_format": "hh-sol-artifact-1",
  "contractName": "EtherTalk",
  "sourceName": "contracts/EtherTalk.sol",
  "abi": [
    {
      "inputs": [
        {
          "internalType": "address",
          "name": "friend_key",
          "type": "address"
        },
        {
          "internalType": "string",
          "name": "name",
          "type": "string"
        }
      ],
      "name": "addFriend",
      "outputs": [],
      "stateMutability": "nonpayable",
      "type": "function"
    },
    {
      "inputs": [
        {
          "internalType": "address",
          "name": "pubkey",
          "type": "address"
        }
      ],
      "name": "checkUserExists",
      "outputs": [
        {
          "internalType": "bool",
          "name": "",
          "type": "bool"
        }
      ],
      "stateMutability": "view",
      "type": "function"
    },
    {
      "inputs": [
        {
          "internalType": "string",
          "name": "name",
          "type": "string"
        }
      ],
      "name": "createAccount",
      "outputs": [],
      "stateMutability": "nonpayable",
      "type": "function"
    },
    {
      "inputs": [],
      "name": "getAllAppUser",
      "outputs": [
        {
          "components": [
            {
              "internalType": "string",
              "name": "name",
              "type": "string"
            },
            {
              "internalType": "address",
              "name": "accountAddress",
              "type": "address"
            }
          ],
          "internalType": "struct EtherTalk.AllUserStrcuk[]",
          "name": "",
          "type": "tuple[]"
        }
      ],
      "stateMutability": "view",
      "type": "function"
    },
    {
      "inputs": [],
      "name": "getMyFriendList",
      "outputs": [
        {
          "components": [
            {
              "internalType": "address",
              "name": "pubkey",
              "type": "address"
            },
            {
              "internalType": "string",
              "name": "name",
              "type": "string"
            }
          ],
          "internalType": "struct EtherTalk.friend[]",
          "name": "",
          "type": "tuple[]"
        }
      ],
      "stateMutability": "view",
      "type": "function"
    },
    {
      "inputs": [
        {
          "internalType": "address",
          "name": "pubkey",
          "type": "address"
        }
      ],
      "name": "getUsername",
      "outputs": [
        {
          "internalType": "string",
          "name": "",
          "type": "string"
        }
      ],
      "stateMutability": "view",
      "type": "function"
    },
    {
      "inputs": [
        {
          "internalType": "address",
          "name": "friend_key",
          "type": "address"
        }
      ],
      "name": "readMessage",
      "outputs": [
        {
          "components": [
            {
              "internalType": "address",
              "name": "sender",
              "type": "address"
            },
            {
              "internalType": "uint256",
              "name": "timestamp",
              "type": "uint256"
            },
            {
              "internalType": "string",
              "name": "msg",
              "type": "string"
            }
          ],
          "internalType": "struct EtherTalk.message[]",
          "name": "",
          "type": "tuple[]"
        }
      ],
      "stateMutability": "view",
      "type": "function"
    },
    {
      "inputs": [
        {
          "internalType": "address",
          "name": "friend_key",
          "type": "address"
        },
        {
          "internalType": "string",
          "name": "_msg",
          "type": "string"
        }
      ],
      "name": "sendMessage",
      "outputs": [],
      "stateMutability": "nonpayable",
      "type": "function"
    }
  ],
  "bytecode": "0x608060405234801561001057600080fd5b506112a3806100206000396000f3fe608060405234801561001057600080fd5b50600436106100885760003560e01c8063a24d41de1161005b578063a24d41de146100fd578063bd0f4d0d14610112578063ce43c03214610127578063de6f24bb1461014757600080fd5b8063133f50f51461008d578063255e9c11146100b5578063298daf5b146100d55780633b9f708d146100ea575b600080fd5b6100a061009b366004610d50565b61015a565b60405190151581526020015b60405180910390f35b6100c86100c3366004610d50565b61018a565b6040516100ac9190610db8565b6100e86100e3366004610e89565b6102bd565b005b6100e86100f8366004610ecb565b61040a565b61010561065c565b6040516100ac9190610f1e565b61011a610760565b6040516100ac9190610f8f565b61013a610135366004610d50565b61086a565b6040516100ac9190610ffe565b6100e8610155366004610ecb565b610962565b6001600160a01b0381166000908152600160205260408120805482919061018090611011565b9050119050919050565b606060006101983384610b43565b905060026000828152602001908152602001600020805480602002602001604051908101604052809291908181526020016000905b828210156102b1576000848152602090819020604080516060810182526003860290920180546001600160a01b031683526001810154938301939093526002830180549293929184019161022090611011565b80601f016020809104026020016040519081016040528092919081815260200182805461024c90611011565b80156102995780601f1061026e57610100808354040283529160200191610299565b820191906000526020600020905b81548152906001019060200180831161027c57829003601f168201915b505050505081525050815260200190600101906101cd565b50505050915050919050565b6102c63361015a565b1561030e5760405162461bcd60e51b81526020600482015260136024820152727573657220616c72656164792065786973747360681b60448201526064015b60405180910390fd5b8061035b5760405162461bcd60e51b815260206004820152601860248201527f557365726e616d652063616e6e6f7420626520656d70747900000000000000006044820152606401610305565b3360009081526001602052604090206103758284836110af565b506040805160606020601f850181900402820181018352918101838152600092829190869086908190850183828082843760009201829052509385525050336020938401525083546001810185559381522081519192600202019081906103dc9082611170565b5060209190910151600190910180546001600160a01b0319166001600160a01b039092169190911790555050565b6104133361015a565b61045f5760405162461bcd60e51b815260206004820152601760248201527f43726561746520616e206163636f756e742066697273740000000000000000006044820152606401610305565b6104688361015a565b6104b45760405162461bcd60e51b815260206004820152601960248201527f55736572206973206e6f742072656769737465726564212121000000000000006044820152606401610305565b6001600160a01b038316330361051a5760405162461bcd60e51b815260206004820152602560248201527f757365722063616e6e6f7420616464207468656d73656c76657320617320667260448201526469656e647360d81b6064820152608401610305565b6105243384610bda565b156105715760405162461bcd60e51b815260206004820152601f60248201527f54686573652075736572732061726520616c726561647920667269656e6473006044820152606401610305565b6105b2338484848080601f016020809104026020016040519081016040528093929190818152602001838380828437600092019190915250610cbd92505050565b336000818152600160205260409020805461065792869290916105d490611011565b80601f016020809104026020016040519081016040528092919081815260200182805461060090611011565b801561064d5780601f106106225761010080835404028352916020019161064d565b820191906000526020600020905b81548152906001019060200180831161063057829003601f168201915b5050505050610cbd565b505050565b60606000805480602002602001604051908101604052809291908181526020016000905b8282101561075757838290600052602060002090600202016040518060400160405290816000820180546106b390611011565b80601f01602080910402602001604051908101604052809291908181526020018280546106df90611011565b801561072c5780601f106107015761010080835404028352916020019161072c565b820191906000526020600020905b81548152906001019060200180831161070f57829003601f168201915b50505091835250506001918201546001600160a01b0316602091820152918352929092019101610680565b50505050905090565b3360009081526001602081815260408084209092018054835181840281018401909452808452606094919290919084015b82821015610757576000848152602090819020604080518082019091526002850290910180546001600160a01b0316825260018101805492939192918401916107d990611011565b80601f016020809104026020016040519081016040528092919081815260200182805461080590611011565b80156108525780601f1061082757610100808354040283529160200191610852565b820191906000526020600020905b81548152906001019060200180831161083557829003601f168201915b50505050508152505081526020019060010190610791565b60606108758261015a565b6108ba5760405162461bcd60e51b8152602060048201526016602482015275155cd95c881a5cc81b9bdd081c9959da5cdd195c995960521b6044820152606401610305565b6001600160a01b038216600090815260016020526040902080546108dd90611011565b80601f016020809104026020016040519081016040528092919081815260200182805461090990611011565b80156109565780601f1061092b57610100808354040283529160200191610956565b820191906000526020600020905b81548152906001019060200180831161093957829003601f168201915b50505050509050919050565b61096b3361015a565b6109b75760405162461bcd60e51b815260206004820152601760248201527f43726561746520616e206163636f756e742046697273740000000000000000006044820152606401610305565b6109c08361015a565b610a055760405162461bcd60e51b81526020600482015260166024820152751d5cd95c881a5cc81b9bdd081c9959da5cdd195c995960521b6044820152606401610305565b610a0f3384610bda565b610a6a5760405162461bcd60e51b815260206004820152602660248201527f596f7520617265206e6f7420667269656e64207769746820746865206769766560448201526537103ab9b2b960d11b6064820152608401610305565b6000610a763385610b43565b905060006040518060600160405280336001600160a01b0316815260200142815260200185858080601f016020809104026020016040519081016040528093929190818152602001838380828437600092018290525093909452505084815260026020818152604080842080546001808201835591865294839020875160039096020180546001600160a01b0319166001600160a01b0390961695909517855591860151918401919091558401519394508493919250820190610b399082611170565b5050505050505050565b6000816001600160a01b0316836001600160a01b03161015610ba6576040516bffffffffffffffffffffffff19606085811b8216602084015284901b1660348201526048015b604051602081830303815290604052805190602001209050610bd4565b6040516bffffffffffffffffffffffff19606084811b8216602084015285901b166034820152604801610b89565b92915050565b6001600160a01b03808216600090815260016020819052604080832082015493861683528220015490911015610c0e579091905b60005b6001600160a01b03841660009081526001602081905260409091200154811015610cb357826001600160a01b031660016000866001600160a01b03166001600160a01b031681526020019081526020016000206001018281548110610c7857610c78611230565b60009182526020909120600290910201546001600160a01b031603610ca1576001915050610bd4565b80610cab81611246565b915050610c11565b5060009392505050565b6040805180820182526001600160a01b038481168252602080830185815287831660009081526001808452958120860180548088018255908252929020845160029093020180546001600160a01b03191692909316919091178255519192839290820190610d2b9082611170565b50505050505050565b80356001600160a01b0381168114610d4b57600080fd5b919050565b600060208284031215610d6257600080fd5b610d6b82610d34565b9392505050565b6000815180845260005b81811015610d9857602081850181015186830182015201610d7c565b506000602082860101526020601f19601f83011685010191505092915050565b60006020808301818452808551808352604092508286019150828160051b87010184880160005b83811015610e3257888303603f19018552815180516001600160a01b0316845287810151888501528601516060878501819052610e1e81860183610d72565b968901969450505090860190600101610ddf565b509098975050505050505050565b60008083601f840112610e5257600080fd5b50813567ffffffffffffffff811115610e6a57600080fd5b602083019150836020828501011115610e8257600080fd5b9250929050565b60008060208385031215610e9c57600080fd5b823567ffffffffffffffff811115610eb357600080fd5b610ebf85828601610e40565b90969095509350505050565b600080600060408486031215610ee057600080fd5b610ee984610d34565b9250602084013567ffffffffffffffff811115610f0557600080fd5b610f1186828701610e40565b9497909650939450505050565b60006020808301818452808551808352604092508286019150828160051b87010184880160005b83811015610e3257888303603f1901855281518051878552610f6988860182610d72565b918901516001600160a01b03169489019490945294870194925090860190600101610f45565b60006020808301818452808551808352604092508286019150828160051b87010184880160005b83811015610e3257888303603f19018552815180516001600160a01b03168452870151878401879052610feb87850182610d72565b9588019593505090860190600101610fb6565b602081526000610d6b6020830184610d72565b600181811c9082168061102557607f821691505b60208210810361104557634e487b7160e01b600052602260045260246000fd5b50919050565b634e487b7160e01b600052604160045260246000fd5b601f82111561065757600081815260208120601f850160051c810160208610156110885750805b601f850160051c820191505b818110156110a757828155600101611094565b505050505050565b67ffffffffffffffff8311156110c7576110c761104b565b6110db836110d58354611011565b83611061565b6000601f84116001811461110f57600085156110f75750838201355b600019600387901b1c1916600186901b178355611169565b600083815260209020601f19861690835b828110156111405786850135825560209485019460019092019101611120565b508682101561115d5760001960f88860031b161c19848701351681555b505060018560011b0183555b5050505050565b815167ffffffffffffffff81111561118a5761118a61104b565b61119e816111988454611011565b84611061565b602080601f8311600181146111d357600084156111bb5750858301515b600019600386901b1c1916600185901b1785556110a7565b600085815260208120601f198616915b82811015611202578886015182559484019460019091019084016111e3565b50858210156112205787850151600019600388901b60f8161c191681555b5050505050600190811b01905550565b634e487b7160e01b600052603260045260246000fd5b60006001820161126657634e487b7160e01b600052601160045260246000fd5b506001019056fea26469706673582212205a715155658d884f18a103d5dcde215d16d0180626a93f6974244e6d53f4131c64736f6c63430008120033",
  "linkReferences": {},
  "deployedLinkReferences": {}
}